:020000040800F2
:20000000C82000200985010813EA0008A1EB0008A3EB0008A5EB0008A7EB000800000000E0
:20002000000000000000000000000000A9EB0008ABEB000800000000ADEB0008AFEB000844
:20004000258501082985010863F400082D8501083185010835850108398501083D85010808
:200060004185010845850108498501084D8501085185010855850108598501085D85010898
:200080006185010865850108698501086D8501085FF400087185010875850108B3EB000889
:2000A0007985010865F300087D85010875F20008BDF100088185010891F3000885850108FB
:2000C000898501088D850108D9F300089185010895850108998501089D850108A185010857
:2000E0009BF00008F1F40008A5850108A9850108AD850108B1850108B5850108B985010812
:20010000BD85010800000000000000000DF60008C1850108C5850108C9850108CD85010835
:20012000D185010821FA0008D5850108D9850108DD850108E1850108000000000000000099
:20014000E5850108E9850108ED85010800000000000000000000000000000000000000003A
:20016000F1850108F5850108F9850108FD8501080186010805860108098601080D86010813
:20018000118601081586010800000000000000001986010800000000000000000000000073
:2001A00000000000000000000000000000000000000000000000000000000000000000003F
:2001C000000000000000800180018001800180018001800180018001800180018001800192
:2001E000000000008001800100000000000000000000000000000000CC00CC00CC00CC00CD
:20020000CC00CC000000000000000000000000000000000000000000000000000000000046
:2002200000000000000000000000000000000000600C600C600C30063006FE1FFE1F30069E
:2002400038071803FE1FFE1F180318038C018C018C01000000008000E003F80F9C0E8C1C71
:200260008C188C009800F801E007800E801C8C188C189C18B80CF00FE0038000800000000A
:20028000000000000000000000000E181B0C110C11061106110311039B018E01C038C06C4F
:2002A00060446044304430441844186C0C380000000000000000E001F0033807180618069B
:2002C0003003F001F000F8009C310E33061E061C061C063FFC73F0210000000000000000D7
:2002E00000000000000000000C000C000C000C000C000C00000000000000000000000000B6
:2003000000000000000000000000000000000000000000000000000200038001C000C000D7
:20032000600060003000300030003000300030003000300060006000C000C00080010003B9
:2003400000020000000020006000C00080018001000300030006000600060006000600062F
:20036000000600060003000380018001C00060002000000000000000000000000000000029
:20038000C000C000D806F807E00130033807000000000000000000000000000000000000AD
:2003A0000000000000000000000000000000000080018001800180018001FC3FFC3F8001C1
:2003C000800180018001800100000000000000000000000000000000000000000000000019
:2003E000000000000000000000000000000000000000000000008001800100010001800079
:2004000000000000000000000000000000000000000000000000000000000000E007E0070E
:200420000000000000000000000000000000000000000000000000000000000000000000BC
:2004400000000000000000000000000000000000000000000000C000C0000000000000001C
:20046000000000000000000C000C0006000600060003000300038003800180018001C00083
:20048000C000C000600060000000000000000000000000000000E003F007380E180C0C18B4
:2004A0000C180C180C180C180C180C180C180C18180C380EF007E0030000000000000000D8
:2004C00000000000000000018001C001F0019801880180018001800180018001800180013F
:2004E00080018001800180010000000000000000000000000000E003F80F180C0C180C18A2
:2005000000180018000C000600038001C000600030001800FC1FFC1F000000000000000077
:20052000000000000000E001F807180E0C0C0C0C000C0006C003C007000C001800180C1889
:200540000C18180CF807E0030000000000000000000000000000000C000E000F000F800DAC
:20056000C00C600C600C300C180C0C0CFC3FFC3F000C000C000C000C0000000000000000B9
:20058000000000000000F80FF80F180018000C00EC03FC071C0E001C0018001800180C186D
:2005A0001C0C180EF807E0030000000000000000000000000000C007F00F381C18181800A9
:2005C0000C00CC03EC0F3C0E1C1C0C180C180C18181C380EF007E003000000000000000003
:2005E000000000000000FC1FFC1F000C00060006000380038001C001C000E0006000600085
:2006000070003000300030000000000000000000000000000000E003F007380E180C180C72
:20062000180C3806F007F007180C0C180C180C180C18380CF80FE003000000000000000088
:20064000000000000000E003F007380E1C0C0C180C180C181C1C381EF81BE0190018000C28
:20066000000C1C0EF807F00100000000000000000000000000000000000000000000000054
:20068000800180010000000000000000000000000000000080018001000000000000000056
:2006A000000000000000000000000000000000008001800100000000000000000000000038
:2006C000000000008001800100010001800000000000000000000000000000000000000096
:2006E000000000000010001C800FE003F8001800F800E003800F001C0010000000000000B6
:200700000000000000000000000000000000000000000000F81F000000000000F81F0000AB
:200720000000000000000000000000000000000000000000000000000000000000000000B9
:200740000000000008003800F001C007001F0018001FC007F0013800080000000000000053
:20076000000000000000E003F80F180C0C180C180018000C000600038001C000C000C00035
:2007800000000000C000C00000000000000000000000000000000000E00718180420C229B3
:2007A000224A114409440944094409221113E20C024004201818E0070000000000000000D7
:2007C00000000000000080038003C006C006C006600C600C301830183018F83FF83F1C7017
:2007E0000C600C6006C006C00000000000000000000000000000FC03FC0F0C0C0C180C182B
:200800000C180C0CFC07FC0F0C180C300C300C300C300C18FC1FFC07000000000000000038
:20082000000000000000C007F01F38381C300C7006600600060006000600060006000660BA
:200840000C701C30F01FE0070000000000000000000000000000FE03FE0F060E061806187C
:20086000063006300630063006300630063006180618060EFE0FFE030000000000000000A0
:20088000000000000000FC3FFC3F0C000C000C000C000C00FC1FFC1F0C000C000C000C0040
:2008A0000C000C00FC3FFC3F0000000000000000000000000000F83FF83F180018001800F4
:2008C00018001800F81FF81F180018001800180018001800180018000000000000000000FA
:2008E000000000000000E00FF83F3C780E6006E007C00300030003FE03FE03C007C006C0AB
:200900000EC03CF0F83FE00F00000000000000000000000000000C300C300C300C300C308B
:200920000C300C30FC3FFC3F0C300C300C300C300C300C300C300C300000000000000000E9
:2009400000000000000080018001800180018001800180018001800180018001800180010A
:20096000800180018001800100000000000000000000000000000006000600060006000655
:200980000006000600060006000600060006180618063807F003E0010000000000000000DE
:2009A00000000000000006300618060C060606038601C60066007600DE008E010603060611
:2009C000060C061806300660000000000000000000000000000018001800180018001800D3
:2009E0001800180018001800180018001800180018001800F81FF81F0000000000000000D9
:200A00000000000000000EE01EF01EF01EF036D836D836D836D866CC66CC66CCC6C6C6C6D8
:200A2000C6C6C6C686C386C300000000000000000000000000000C301C303C303C306C3010
:200A40006C30CC30CC308C310C330C330C360C360C3C0C3C0C380C30000000000000000033
:200A6000000000000000E007F81F1C380E70066003C003C003C003C003C003C003C0066085
:200A80000E701C38F81FE0070000000000000000000000000000FC0FFC1F0C380C300C30A4
:200AA0000C300C300C18FC1FFC070C000C000C000C000C000C000C00000000000000000028
:200AC000000000000000E007F81F1C380E70066003E003C003C003C003C003C007E00663DE
:200AE0000E3F1C3CF83FE0F700C0000000000000000000000000FE0FFE1F063806300630AF
:200B000006300638FE1FFE0706030606060C0618061806300630066000000000000000000A
:200B2000000000000000E003F80F1C0C0C180C180C001C00F803E00F001E00380630063087
:200B40000E301C1CF80FE0070000000000000000000000000000FE7FFE7F800180018001B4
:200B6000800180018001800180018001800180018001800180018001000000000000000069
:200B80000000000000000C300C300C300C300C300C300C300C300C300C300C300C300C3049
:200BA0000C301818F81FE007000000000000000000000000000003600630063006300C18A2
:200BC0000C180C18180C180C380E30063006700760036003C001C001000000000000000014
:200BE0000000000000000360C361C361C3616633663366336633663366336C1B6C1B6C1BFB
:200C00002C1A3C1E380E380E00000000000000000000000000000FE00C7018303018700C31
:200C2000600EC00780038003C003E006700C301C18180C300E6007E0000000000000000047
:200C400000000000000003C006600C301C383818300C6006E007C00380018001800180013B
:200C600080018001800180010000000000000000000000000000FC7FFC7F006000300018D2
:200C8000000C000600038001C0006000300018000C000600FE7FFE7F00000000000000004A
:200CA000000000000000E003E003600060006000600060006000600060006000600060004E
:200CC0006000600060006000600060006000E003E00300000000300030006000600060002E
:200CE000C000C000C000C0018001800180010003000300030006000600000000000000005B
:200D0000000000000000E003E00300030003000300030003000300030003000300030003EC
:200D20000003000300030003000300030003E003E003000000000000C001C0016003600390
:200D4000600330063006180C180C000000000000000000000000000000000000000000007C
:200D6000000000000000000000000000000000000000000000000000000000000000000073
:200D8000000000000000FFFFFFFF0000000000000000000000000C000C000C000C000C001B
:200DA0000C0000000000000000000000000000000000000000000000000000000000000027
:200DC00000000000000000000000000000000000F003F8071C0C0C0C000FF00FF80C0C0CB7
:200DE0000C0C1C0FF80FF01800000000000000000000000000001800180018001800180029
:200E0000D803F80F380C181818181818181818181818380CF80FD803000000000000000066
:200E200000000000000000000000000000000000C003F007300E180C180018001800180036
:200E4000180C300EF007C003000000000000000000000000000000180018001800180018FE
:200E6000C01BF01F301C181818181818181818181818301CF01FC01B0000000000000000E6
:200E800000000000000000000000000000000000C003F00F300C1818F81FF81F18001800C6
:200EA0003818301CF00FC0070000000000000000000000000000800FC00FC000C000C00032
:200EC000F007F007C000C000C000C000C000C000C000C000C000C0000000000000000000A4
:200EE00000000000000000000000000000000000E00DF80F180E0C0C0C0C0C0C0C0C0C0C60
:200F00000C0C180EF80FE00D000C0C0C1C06F807F0010000000018001800180018001800F1
:200F2000D807F80F381C1818181818181818181818181818181818180000000000000000C7
:200F4000000000000000C000C000000000000000C000C000C000C000C000C000C000C00011
:200F6000C000C000C000C0000000000000000000000000000000C000C000000000000000F1
:200F8000C000C000C000C000C000C000C000C000C000C000C000C000C000C000C000F80019
:200FA0007800000000000C000C000C000C000C000C0C0C060C038C01CC006C00FC009C01E6
:200FC0008C030C030C060C0C0000000000000000000000000000C000C000C000C000C00089
:200FE000C000C000C000C000C000C000C000C000C000C000C000C0000000000000000000F1
:20100000000000000000000000000000000000007C3CFF7EC7E383C183C183C183C183C19D
:2010200083C183C183C183C1000000000000000000000000000000000000000000000000A0
:201040009807F80F381C1818181818181818181818181818181818180000000000000000E6
:2010600000000000000000000000000000000000C003F00F300C1818181818181818181882
:201080001818300CF00FC00300000000000000000000000000000000000000000000000022
:2010A000D803F80F380C181818181818181818181818380CF80FD803180018001800180064
:2010C00018000000000000000000000000000000C01BF01F301C18181818181818181818D2
:2010E0001818301CF01FC01B00180018001800180018000000000000000000000000000012
:20110000B007F0037000300030003000300030003000300030003000000000000000000005
:2011200000000000000000000000000000000000E003F003380E180C3800F003C007000C71
:20114000180C380EF007E003000000000000000000000000000000008000C000C000C0008B
:20116000F007F007C000C000C000C000C000C000C000C000C0078007000000000000000033
:201180000000000000000000000000000000000018181818181818181818181818181818CF
:2011A0001818381CF01FE019000000000000000000000000000000000000000000000000A3
:2011C0000C18180C180C180C300630063006600360036003C001C001000000000000000032
:2011E00000000000000000000000000000000000C141C141C361636363636363363636369D
:2012000036361C1C1C1C1C1C000000000000000000000000000000000000000000000000BA
:201220001C38381C300C600660036003600360036006300C381C1C3800000000000000008E
:20124000000000000000000000000000000000001830301830187018600C600CE00CC006A4
:20126000C00680038003800380018001C001F00070000000000000000000000000000000FC
:20128000FC1FFC1F000C000600038001C000600030001800FC1FFC1F0000000000000000E4
:2012A00000000000000000038001C000C000C000C000C000C000600060003000600040009A
:2012C000C000C000C000C000C000C000800100030000000000008001800180018001800185
:2012E0008001800180018001800180018001800180018001800180018001800180018001DE
:201300008001000000006000C000C0018001800180018001800100030003000600030001D6
:20132000800180018001800180018001C00060000000000000000000000000000000000087
:2013400000000000F010F81F080F000000000000000000000000000000000000000000005F
:2013600000000000000000000000000000000000000000000000000000000000000000204D
:2013800000200020002000200020002000000020000000000000005000500050000000007D
:2013A0000000000000000000000000000000000900090012007F0012007F0012002400249F
:2013C0000000000000100038005400500050003800140054005400380010000000008030E5
:2013E00000490049004AC032200520092009C010000000000000000C00120012001400187C
:20140000002500230023801D00000000000000400040004000000000000000000000000004
:20142000000000000000000800100010002000200020002000200020001000100000004064
:201440000020002000100010001000100010001000200020000000200070002000500000AC
:2014600000000000000000000000000000000000000000080008007F0008000800000000CD
:201480000000000000000000000000000000000000000000000000200020004000000000CC
:2014A0000000000000000000007000000000000000000000000000000000000000000000BC
:2014C0000000000000000020000000000000001000100010002000200020002000400040BC
:2014E000000000000000001000280044004400440044004400280010000000000000001018
:20150000003000500010001000100010001000100000000000000030004800440004000823
:20152000001000200040007C00000000000000300048000400080010000800440048003067
:20154000000000000000000800180018002800280048007C00080008000000000000003CF3
:2015600000200040007000480004004400480030000000000000001800240040005000685F
:201580000044004400280010000000000000007C0004000800100010001000200020002073
:2015A0000000000000000010002800440028001000280044002800100000000000000010C3
:2015C000002800440044002C0014000400480030000000000000000000000020000000007F
:2015E00000000000000000200000000000000000000000200000000000000000000000208B
:201600000020004000000000000400080030004000300008000400000000000000000000B2
:201620000000007C00000000007C0000000000000000000000000000004000200018000436
:201640000018002000400000000000000000003800640044000400080010001000000010F6
:20166000000000000000800F4010A02EA0512051205120512053C04D202040100000000861
:201680000014001400140022003E002200410041000000000000003C002200220022003C2C
:2016A000002200220022003C000000000000000E0011002100200020002000210011000EA8
:2016C000000000000000003C0022002100210021002100210022003C000000000000003E6B
:2016E000002000200020003E002000200020003E000000000000003E002000200020003CD4
:201700000020002000200020000000000000000E0011002100200027002100210011000E61
:201720000000000000000021002100210021003F0021002100210021000000000000002042
:20174000002000200020002000200020002000200000000000000008000800080008000861
:20176000000800480048003000000000000000220024002800280038002800240024002241
:2017800000000000000000200020002000200020002000200020003E00000000000080206B
:2017A000803180318031802A802A802A802A802400000000000000210031003100290029F5
:2017C0000025002300230021000000000000000C0012002100210021002100210012000C9C
:2017E000000000000000003C002200220022003C0020002000200020000000000000000C7F
:201800000012002100210021002100210016000D000100000000003E002100210021003E0E
:201820000024002200218020000000000000001C002200220020001C000200220022001CA3
:20184000000000000000003E000800080008000800080008000800080000000000000021E9
:201860000021002100210021002100210012000C000000000000004100410022002200229C
:2018800000140014001400080000000000004044404A402A802A802A802A802A802A001129
:2018A0000000000000000041002200140014000800140014002200410000000000000041C9
:2018C00000220022001400080008000800080008000000000000007E0002000400080010EC
:2018E000001000200040007E000000000000003000200020002000200020002000200020CA
:201900000020002000000040004000200020002000200020001000100000000000000060E7
:2019200000200020002000200020002000200020002000200000001000280028002800449B
:20194000000000000000000000000000000000000000000000000000000000000000000087
:201960000000007E0040002000000000000000000000000000000000000000000000000089
:201980000000003800440004003C00440044003C0000000000000040004000580064004447
:2019A000004400440064005800000000000000000000003000480040004000400048003033
:2019C000000000000000000400040034004C004400440044004C0034000000000000000033
:2019E0000000003800440044007C0040004400380000000000000060004000E000400040EF
:201A00000040004000400040000000000000000000000034004C004400440044004C0034FA
:201A200000040044000000400040005800640044004400440044004400000000000000408E
:201A40000000004000400040004000400040004000000000000000400000004000400040C6
:201A600000400040004000400040004000000040004000480050006000500050004800483E
:201A8000000000000000004000400040004000400040004000400040000000000000000006
:201AA00000000052006D0049004900490049004900000000000000000000005800640044FA
:201AC000004400440044004400000000000000000000003800440044004400440044003832
:201AE000000000000000000000000058006400440044004400640058004000400000000022
:201B000000000034004C004400440044004C00340004000400000000000000500060004001
:201B200000400040004000400000000000000000000000300048004000300008004800303D
:201B40000000000000000040004000E0004000400040004000400060000000000000000085
:201B6000000000440044004400440044004C003400000000000000000000004400440028E1
:201B80000028002800280010000000000000000000000049004900550055005500550022B5
:201BA0000000000000000000000000440028002800100028002800440000000000000000ED
:201BC000000000440044002800280028001000100010001000000000000000780008001035
:201BE0000020002000400078000000000000001000200020002000200040002000200020BD
:201C00000020002000000020002000200020002000200020002000200020002000000040E4
:201C20000020002000200020001000200020002000200020000000000000000000740058A8
:201C40000000000000000000000000000000000000700050005000500050005000500070C4
:201C6000000000000000000000000000000000000000000000000000000000000000000064
:201C800000001000100010001000100010000000100000000000000000002800280028005C
:201CA000000000000000000000000000000000000000140014003E00140028007C002800DE
:201CC0002800000000000000100038005400500038001400140054003800100000000000F4
:201CE00000004400A800A800500014001A002A0024000000000000000000200050005000C4
:201D00002000E80098009800600000000000000000008000800080000000000000000000AB
:201D2000000000000000000000004000800080008000800080008000800080000000000063
:201D400000008000400040004000400040004000400040000000000000004000E0004000A3
:201D6000A000000000000000000000000000000000000000000020002000F800200020004B
:201D80000000000000000000000000000000000000000000000000004000400000000000C3
:201DA000000000000000000000000000C00000000000000000000000000000000000000063
:201DC0000000000000000000400000000000000000002000200020004000400080008000E3
:201DE000800000000000000000006000900090009000900090009000600000000000000043
:201E0000000020006000A00020002000200020002000000000000000000060009000100002
:201E20001000200040008000F00000000000000000006000900010006000100010009000B2
:201E40006000000000000000000010003000500050009000F800100010000000000000009A
:201E60000000700040008000E00010001000900060000000000000000000600090008000D2
:201E8000A000D0009000900060000000000000000000F00010002000200020004000400072
:201EA0004000000000000000000060009000900060009000900090006000000000000000F2
:201EC0000000600090009000B0005000100090006000000000000000000000000000400042
:201EE000000000000000000040000000000000000000000000004000000000000000000062
:201F00004000400000000000000000000000100060008000600010000000000000000000E1
:201F20000000000000000000F0000000F00000000000000000000000000000000000800041
:201F4000600010006000800000000000000000000000600090001000200040004000000091
:201F6000400000000000000000001C0022005B00A500A500A500A5009E0041000000000015
:201F80000000200050005000500050007000880088000000000000000000F0008800880061
:201FA000F000880088008800F00000000000000000003800440084008000800084004400E1
:201FC00038000000000000000000E000900088008800880088009000E000000000000000C9
:201FE0000000F80080008000F800800080008000F800000000000000000078004000400081
:020000040800F2
:2020000070004000400040004000000000000000000038004400840080009C00840044006C
:2020200038000000000000000000880088008800F8008800880088008800000000000000B8
:20204000000080008000800080008000800080008000000000000000000010001000100050
:2020600010001000900090006000000000000000000088009000A000E000A0009000900068
:20208000880000000000000000008000800080008000800080008000F00000000000000048
:2020A00000008200C600C600AA00AA00AA00AA00920000000000000000008400C400A400EC
:2020C000A400940094008C0084000000000000000000300048008400840084008400480054
:2020E00030000000000000000000F000880088008800F000800080008000000000000000B8
:202100000000300048008400840084008400580034000400000000000000780044004400A7
:20212000780050004800440042000000000000000000700088008000700008008800880009
:2021400070000000000000000000F800200020002000200020002000200000000000000037
:2021600000008400840084008400840084004800300000000000000000008800880050006F
:202180005000500050005000200000000000000000009200AA00AA00AA00AA00AA00AA0051
:2021A000440000000000000000008400480048003000300048004800840000000000000053
:2021C0000000880050005000200020002000200020000000000000000000F8000800100027
:2021E0002000200040008000F8000000000000000000C00080008000800080008000800027
:2022000080008000000000000000800080004000400040004000200020000000000000007E
:202220000000C000400040004000400040004000400040000000000000004000A000A0005E
:20224000A000000000000000000000000000000000000000000000000000000000000000DE
:202260000000F80000000000000080004000000000000000000000000000000000000000A6
:20228000000000000000E00010007000900090007000000000000000000080008000A000AE
:2022A000D00090009000D000A000000000000000000000000000600090008000800090003E
:2022C00060000000000000000000100010005000B00090009000B00050000000000000005E
:2022E00000000000000060009000F0008000900060000000000000000000C0008000C0008E
:20230000800080008000800080000000000000000000000000005000B00090009000B0006D
:202320005000100000000000000080008000A000D00090009000900090000000000000008D
:202340000000800000008000800080008000800080000000000000000000800000008000FD
:20236000800080008000800080008000000000000000800080009000A000C000A00090003D
:202380009000000000000000000080008000800080008000800080008000000000000000AD
:2023A000000000000000A600DA009200920092009200000000000000000000000000A000B5
:2023C000D0009000900090009000000000000000000000000000600090009000900090004D
:2023E0006000000000000000000000000000A000D00090009000D000A000800000000000FD
:202400000000000000005000B00090009000B0005000100000000000000000000000A000EC
:20242000C0008000800080008000000000000000000000000000E00090004000200090007C
:202440006000000000000000000080008000C0008000800080008000C0000000000000009C
:202460000000000000009000900090009000B0005000000000000000000000000000880094
:20248000880050005000500020000000000000000000000000009200AA00AA00AA00AA006A
:2024A0004400000000000000000000000000880050002000200050008800000000000000E8
:2024C000000000000000880050005000500020002000200000000000000000000000F00034
:2024E0001000200040008000F0000000000000000000C000800080008000000080008000BC
:2025000080008000000000000000800080008000800080008000800080008000000000003B
:202520000000C00040004000400020004000400040004000000000000000000000000000FB
:20254000E800B00000000000000000000000000000000000E000A000A000A000A000A000E3
:20256000E000000000000000000000000000000000000000400040004000400040004000FB
:2025800000004000A000A000A00000000000000000000000000024002400FE004800FC0091
:2025A00048004800380054005000380014001400540038004400A800A800500014001A00B1
:2025C0002A002400100028002800100074004C004C003000100010001000000000000000D1
:2025E000000000000800100010001000100010001000080010000800080008000800080033
:202600000800100000000000240018003C0018002400000000000000100010007C00100042
:20262000100000000000000000000000000008000800100000000000000000003C0000002E
:202640000000000000000000000000000000000018001800080008000800100010002000F2
:202660002000200018002400240024002400240024001800080018002800080008000800B2
:202680000800080038004400000004000800100020007C0018002400040018000400040096
:2026A0002400180004000C001400240044007E00040004003C002000200038000400040010
:2026C00024001800180024002000380024002400240018003C00040008000800080010003E
:2026E000100010001800240024001800240024002400180018002400240024001C0004001A
:2027000024001800000000001000000000001000000000000000000008000000000008004D
:2027200010000000000000000400180020001800040000000000000000003C0000003C00B9
:2027400000000000000000002000180004001800200000001800240004000800100010009D
:20276000000010003C0042009900A500A5009D004200380038004400440044007C0044000D
:2027800044004400780044004400780044004400440078001C0022004200400040004200B3
:2027A00022001C00700048004400440044004400480070007C00400040007C004000400063
:2027C00040007C003C0020002000380020002000200020001C002200420040004E004200B9
:2027E00022001C004400440044007C004400440044004400100010001000100010001000E3
:20280000100010000400040004000400040024002400180044004800500070005000480040
:202820004800440020002000200020002000200020003C008200C600C600AA00AA00AA00E4
:20284000AA00920042006200520052004A004A004600420018002400420042004200420094
:2028600024001800780044004400440078004000400040001800240042004200420042005C
:202880002C001A007800440044007800500048004400420038004400400038000400440020
:2028A000440038007C00100010001000100010001000100042004200420042004200420024
:2028C00024001800440044002800280028002800280010009200AA00AA00AA00AA00AA0078
:2028E000AA00440042002400240018001800240024004200440028002800100010001000E2
:20290000100010007C000400080010001000200040007C001C0010001000100010001000A7
:2029200010001C00100010000800080008000800040004001C0004000400040004000400F3
:2029400004001C0010002800440000000000000000000000000000000000000000000000DB
:20296000000000002000100010000000000000000000000000000000180004001C002400BB
:2029800024001C00200020002800340024002400340028000000000018002400200020003B
:2029A000240018000400040014002C00240024002C00140000000000180024003C00200073
:2029C0002400180000001800100010001800100010001000000018002400240018000400BF
:2029E00024001800200020002800340024002400240024001000000010001000100010001F
:202A0000100010000800000008000800080008002800100020002000240028003000280052
:202A2000240024001000100010001000100010001000100000000000A600DA00920092002A
:202A40009200920000000000280034002400240024002400000000001800240024002400E2
:202A60002400180000002800340024003800200020002000000014002C0024001C0004007E
:202A800004000400000000002C0030002000200020002000000000001800240010000800FE
:202AA0002400180000001000380010001000100010001800000000002400240024002400AA
:202AC0002C00140000000000440044002800280028001000000000009200AA00AA00AA0016
:202AE000AA0044000000000044002800100010002800440000002800280028001000100058
:202B000010001000000000003C0004000800100020003C0000000800100010002000100089
:202B20001000080010001000100010001000100010001000000010000800080004000800D1
:202B400008001000000000000000600092000C0000000000FF00FF00FF00FF00FF00FF0065
:202B6000FF00FF00BFF34F8FDFF8400CDFF8402C016801F4E06111430160BFF34F8F00BFBE
:202B8000FDE72DE9F04FDFF82C4C87B0012060704FF6FF750020207001F0E3FF284602F0E9
:202BA000CDFC00F01DFE284602F093FC02F0A5FC0FF26421002002F050FD00F0A0FF00F05B
:202BC000AEFB22234FF484724FF492711F2002F03CFE284602F085FC1E234FF482724FF481
:202BE0009171212002F031FE062100F044FB0521012003F04BF800F048F9012000F040F923
:202C000000F039F900F0EFFD45F6A521884218BF01F0A0FD132003F0E6F8132000F03AFB2A
:202C200002208DF8000000208DF801008DF8020001208DF80300684603F0EFF84FF40060EC
:202C400003F03CFB002003F03EFB002003F044FB0121012003F01FFB4FF4005003F086FB55
:202C6000002002F036FCDFF8480EDFF848BE0FF2585A0FF26C590FF2805802F03AFC47F64F
:202C8000FF7002F02EFC02F038FC1222C0880FF2A011504300F095FD00F0A2FD284602F051
:202CA00018FC02F02AFC1322C0880FF2A411504300F087FD00F0DCF800F0E0FA04F1080023
:202CC00003F091F914261EE003F0AFF9C0F580704FF47A714843000A606004F1080100205E
:202CE00003F087F9616804F1080203A801F098FD03A982B068460C2203F08CFB0CBC00214B
:202D0000252001F075FD03F0EAFC06285DD000F095FA002834D000F096FA00F0A9F802F029
:202D200024FD284602F00AFC00F05AFD00F0E7FE02F0E3FB4146C088400601F0C9FC02F063
:202D4000DCFB494600F0D6FE00F03BFD284602F0C0FB02F0D2FB5146C08800EB800000F00D
:202D600030FD02F0CAFB0622C0880FF24441504300F027FD03F0B3FC0428FBD1FFF7F2FE52
:202D800000F076F8284602F0ACFB207800289BD1002706FB07F0C0F58C70302281B201E06C
:202DA0003A2289B2252002F043FC7F1C0C2FAADA022F06FB07F018BF052FC0F58C71EFD007
:202DC000082F08BF2E22ECD0E3E70021042003F0A7FA0021012003F068FA0020607020702F
:202DE000DFF8D41C086000F043F801F067FF284602F0A4FB03F05BFB00F047F8002000F09B
:202E00003FF800F038F800F035FA012001F0A9FE07B0BDE8F08F0000202020202020535441
:202E20004F505741544348202020202000000000204C4546542020207C20205249474854F7
:202E400020207C20204B4559202020200000000020535441525420207C2020204745542043
:202E600020207C20204558495420202000000000584602F03EBB0520019001A802F030BFF3
:202E80008DF80A0001A802F02BBF0620019000208DF8080008208DF8090070472DE9F04700
:202EA000DFF810498AB000262670022060704FF6FF7900F0ABFC00F0F9FF00F091FC00F051
:202EC000F2FF02F01AFB0FF28821002002F0C5FB47F6FF7A504602F004FB002002F0F9FA3C
:202EE000142345227921452002F0F6FC1423AB227921AB2002F0F0FC472378227921462006
:202F000002F0EAFC7923AA224721782002F0E4FC462378221421462002F0DEFC1423AA2232
:202F20004621782002F0D8FCF00711D400F0A6F94FEA5608C8F17805C6F1640708F1460033
:202F400000F076F900F0AFFFC8F1AA0000F070F9761C642EE8D300F091F9484602F0C1FA24
:202F600002F0CBFA0FF20021C088DFF8445BDFF8446B00EB400000F024FC0FF2F8115F2070
:202F800002F06BFB284602F0B4FA0FF2F411782002F063FB00F05CF9DFF8701E3C2008606F
:202FA000062100F068F90D21022002F06FFE0721042002F06BFE00F05DF900F062F9012091
:202FC00000F049F900F051F90720009000F045F900F046F900F007FC45F6A521884218BFDC
:202FE00001F0B8FB112002F0FEFE112000F052F929208DF8080000208DF809008DF80A008F
:2030000001208DF80B0002A802F007FF05A803F0CCF84FF08030069005AA4FF48071002071
:2030200003F06FF84FF0A062FF214FF4807003F022F901F023FA00F006F9284602F059FAE4
:20304000504602F04EFA002002F043FA02F055FA1222C0880FF238110FF2541A0FF268185A
:203060000FF27C150FF29017504300F0AAFB00F0B7FB00F018FF02F040FA1322C0880FF29B
:203080009011504300F09DFB00F0E2F837E000F0D5F8002833D000F0B9FB00F0D4F800F05B
:2030A000D7F802F062FB00F001FF00F099FB00F026FD02F022FA3946C088400601F008FB5C
:2030C00002F01BFA294600F015FD00F07AFB00F0EAFE02F012FA4146C08800EB800000F013
:2030E00070FB02F00AFA0622C0885043514600F068FB03F0F4FA0428FBD1FFF733FD03F090
:20310000EEFA0628C3D100F09EF80020DFF8A41D60700860207000F09BF800F0B2F80020C2
:2031200000F099F800F0A1F80720009000F095F800F096F801F0C2FD00F0B8FE03F0B7F9DA
:2031400000F098F8012001F00CFD0AB0BDE8F087202020202020202054696D65722020209D
:203160002020202000000000205365742054696D65723A00202030313A303020202020006D
:20318000205550282B292F444F574E282D29000020524947485420207C20202053454C204B
:2031A00020207C20204B4559202020200000000052657374617274207468652044656D6FBF
:2031C0002E2E2E20000000005072657373204A6F79537469636B20557020746F0000000000
:2031E000506C6561736520636865636B2053442043617264000000004572723A20534443A9
:203200006172642052656D6F766564200000000020524553455420207C2020535441525438
:2032200020207C202045584954202020000000000023BAB2A9B2C0B202F0AABA4021DFF80E
:20324000300D03F01CBE00214FF4807002F0EDBF304602F04EB98DF80600684602F040BDDB
:2032600005200090684602F03BBD06200090684602F036BD0521032002F008BD1F2002F087
:2032800028B90D20009000208DF8040008208DF805007047039000208DF8100008208DF889
:2032A000110001208DF8120003A802F019BD2DE9F04105460C4616461F4600F030F84FF6D0
:2032C000FF78404602F005F903E0BC4208BF741C641E02F012F900F019F803F000FA042830
:2032E00004D1B44208BF7C1E641CF2E70528ECD00128F2D1404602F0F4F800F000FC02F032
:20330000FCF800F003F8E0B2BDE8F08104F13002C088C006D2B22946000E02F089B94FF479
:20332000784002F0DEB8012010B5DFF81C4D2070607082B040F2DC70606000F054FA00F029
:2033400094FD1DD000F04CFA4FF6FF7002F0C1F802F0D3F800F074F900F033FA02F0CDF86C
:2033600001F0B2F902F0C9F800F026FA03F0B7F9012802D100F056F813BD0028F6D013BD83
:2033800001F0E3F9012003F0A3FD6946002002F099FE9DF8030000F5FA6060609DF8010017
:2033A00020709DF802006070042002F0ACFF000CA082042002F0A7FFE08213BD2DE9F843E8
:2033C000DFF8886C717900230222E420FFF76FFF05460A243179022D08D10429A4BF0020AE
:2033E000307101F045F800F1140703E001F03BF814FB050701F031F801F028F801F01FF89D
:2034000001F016F814FB089114FB05008DF801108DF802008DF800706946002002F0A6FD7B
:20342000BDE8F18310B501F056F900F0D9F9204602F04FF80FF2F41201F076F802F095F927
:2034400000F0D1F945F6A524A04230D002F055F80FF27C0100F0F6F800F0B3F901F040F96B
:2034600002F04BF80FF2800100F0ECF800F0A9F902F043F800F0F2FD02F03FF801F038F8D9
:2034800002F03BF801F02DF800F040F8FFF796FF2146002002F02AFF02F02FF800F06AFD2C
:2034A00002F02BF800F0DAFDBDE8104037E102F024F800F0D3FD02F020F801F019F802F057
:2034C0001CF801F00EF800F021F8BDE8104075E752544320436F6E66696720504C5A20579B
:2034E0006169742E000000002020202020202054494D452020202020202020200000000031
:2035000080B500F083F9FFF78DFF74E138B56946002002F06EFD9DF80000DFF8304B01F042
:203520006CF801F052F801F083F801F044F801F05DF801F036F801F071F801F028F801F092
:203540004EF801F01AF801F05FF800F001F831BD2178C08801F13002C006D2B27621000E0F
:2035600002F066B838B54FF6FF74204601F0B9FFFFF784FE00F04AF901F0AFF80FF2AC0592
:203580002A4600F0D1FF02F0F0F800F02CF900F06CFC2FD001F0B1FF00F052F800F011F9E0
:2035A00001F0ABFF01F090F801F0A7FF00F004F903F095F801281AD1FFF734FF01F08DF840
:2035C0002A46EF21A02003F0D5FC02F0CEF8FFF755FE01F092FF00F08BFF01F08EFF00F07C
:2035E00080FF03F07CF8C0B9FFF790FFF9E70028DED012E003F073F80028FBD101F07DFF80
:2036000000F076FF01F079FF00F06BFF01E0FFF77DFF03F064F80028F9D001F06EFF00F0A1
:203620001DFD02F044FFBDE83240ECE0535446494C45532F57415443482E424D500000008B
:203640000FF20801C088C0EBC000704754696D6520616E64204461746520436F6E66696700
:203660000000000010B582B001F047FF0FF24401C088DFF8D44900F0A2F8DFF8B00D006814
:2036800000F01DFC00F03AF801F037FF0FF23C0100F094F800F074FC00F030F801F02DFF89
:2036A0000FF2400100F08AF800F0DDFC00F026F813BD00002055502F444F574E3A20536571
:2036C0007420596561722020000000002055502F444F574E3A20536574204D6F6E7468208D
:2036E00000000000536574204461792D2053454C20546F206578697400000000606830304A
:203700008DF80300694620788DF8010060788DF8020001208DF80000002002F08BBC10B531
:2037200000F0D9FF00F05CF8204601F0D2FE00F05AF800F09AFB1BD001F0DFFEFFF780FF61
:2037400000F03FF801F0D9FE00F0BEFF01F0D5FE00F032F802F0C3FF012806D1FFF762FEE5
:203760002046BDE8104001F0E9BE0028F2D010BDDFF8D44862782178606800F04AF8FFF749
:2037800071FF6168022002F0B1FD2078617841EA0021032002F0AAFDA08AE18ABDE810402B
:2037A00041EA0041042002F0A1BD00000CED00E00400FA05602E00200FF20C01C08800EB5E
:2037C000C000C0B201F049BF41626F72743A20507265737320416E79204B657900000000CE
:2037E0001F2001F07EBE002002F08DBD80B500F00DF8FFF794FF4FF6FF7001F09FFE02F01A
:2038000056FEBDE80240012001F0ABB9002001F0A8B92DE9F44F86B08346002002900F4626
:2038200040F23F10009000200190022F0390DFF8184806D11FFA8BF000F06BFD08B11E2011
:2038400001E0E019C079039040F21F58404601F048FE4FF6E07001F03CFE01F04EFE04EB70
:2038600087006425016A002001F0F7FE01F045FE4FF47A70BBFBF0F909F13002D2B25F2197
:2038800000F041F901F039FE4FF47A7000FB19B96420B9FBF0FA0AF13002D2B24F2100F0A9
:2038A00032F901F02AFE05FB1A960A20B6FBF0FA0AF13002D2B23F2100F025F901F01DFE24
:2038C0004FF00A0909FB1A6000F13002D2B22F2100F019F99DF818203946584600F0C3FC86
:2038E0004FF6FF7A504601F0F4FD01F006FE0FF23851C088FFF765FFA069B0FBF9F69EB17F
:2039000001F0FBFDA16900F0EEF8DF2100F0B5FAA66901F0F2FD0A21B6FBF1F109FB11611C
:2039200000F096FACF2106E0049001F0E6FD049900F08EFADF2100F0B2FA266A6420B6FB53
:20394000F0F0F8B101F0D9FD216AC088B1FBF5F100F08FFA266A01F0D0FD6421B6FBF1F1D3
:2039600005FB1161B1FBF9F100F091FA206A6421B0FBF1F105FB110501F0BFFD00F0AAF8D3
:203980000F2117E0B6FBF9F56DB101F0B6FD216A00F0A9F800F070FA256A01F0AEFD00F00E
:2039A00099F81F2106E001F0A8FD09FB156100F04FFA2F2100F073FAFFF7B1FC504601F030
:2039C00088FD01F09AFD0FF2F401C088400600F07FFE504601F085FD404601F07AFD0122CF
:2039E0003946584600F03FFC01F087FD302200F081F8029040F23F10E16902FB1100009054
:203A000001200DE000981038009020220099029889B200F032FA0098103800900198401CF7
:203A2000019001980399884235D201989DF81810884203D10098A0820298E0820198B0FB01
:203A4000F9F038B101980099B0FBF9F000F13002D2B201E000992022029889B200F00DFA9F
:203A60000098103800900A2201980099B0FBF2F209FB120000F130020298D2B289B200F067
:203A8000FCF900981F28BDD240F23F100090029818300290C2E700F032F8A18AE08A07B02F
:203AA000BDE8F04F20231822C0B201F0AEBE0000B4120020AC1200200C1300204D6F2054A3
:203AC00075205765205468204672205361205375000000000A21B5FBF1F109FB115101F110
:203AE0003002D2B27047C088B1FBF9F101F13002D2B27047C08800EB40007047A0824FF48D
:203B0000784001F0E6BC002001F092BD2DE9F04F85B0FFF77BFE4FF6FF7900F0C7F902F0A2
:203B2000DEFD0028FBD1FFF75BFE00F0BCF9FFF75AFE00F09AF915D001F0DFFCFFF780FDCD
:203B4000FFF73FFE01F0D9FC00F0BEFD01F0D5FCFFF732FE02F0C3FD012829D1FFF762FCB0
:203B600000F0A4F900F0A2F901F0C7FC0FF2A021C088DFF8D454FFF722FEDFF8B008006863
:203B800003A9012002F09EFA9DF80F006A78297830388DF80F006868FFF73BFE2C78022CDA
:203BA00009D1686800F089F928B14FF01D0B06E00028CFD020E12819C079A0F1010BE86993
:203BC000302740F23F1107FB10110291584400F02DFB861A182000FB01F43EB901F08DFC69
:203BE000FFF788FF201801901F200AE001F085FC711EC08804EB8000019040F23F1007FB8A
:203C000011006F78ADF800004FF064084FF00A0A09E001F072FC00F019F92F2100F03FF947
:203C2000484601F05EFC02F05AFD022840F0888000F039F9E88AA98A00F001FB5F4508D1D0
:203C400001F05BFC0027FFF755FFE88202983030A882A88A1F2805D140F26F10A882E88A81
:203C60001830E8827F1CA88A3038A882FFF747FFE88AA98A00F0E3FA29786868FAB200F078
:203C8000F2FA40F21F5001F02CFC00F00CF901F034FC0FF29411C088FFF793FDAE69B6FB2C
:203CA000FAF474B101F029FCA96900F0E9F8DF2100F0E3F8AC6901F020FC00F0CDF8CF2166
:203CC00004E001F01AFC00F0C1F8DF2100F0E7F82E6A6420B6FBF0F0F8B101F00EFC296A9D
:203CE000C088B1FBF8F100F0C4F82C6A01F005FC6421B4FBF1F108FB1141B1FBFAF100F0C1
:203D0000C6F8286A6421B0FBF1F108FB110401F0F4FB00F0A1F80F2180E7B6FBFAF4002C5E
:203D20003FF477AF01F0E9FB296A00F0A9F800F0A3F82C6A01F0E1FB00F08EF81F216DE739
:203D400003281DD100F0AFF8E88AA98A00F077FAA88A012F06D10198E8820BF10107BDF8B8
:203D60000000303880B240F23F11884204D1E98A18394FF6EF70E9823030A8827F1E75E732
:203D800004281AD100F08FF8E88AA98A00F057FAE88A012F02D100F053F80CE0082F08D202
:203DA00001F0ABFB0299C088A982012700EB400001E01838FF1FE88258E7052819D100F00C
:203DC00072F8E88AA98A00F03AFA5F4508D101F094FB0299C088A98200EB4000012702E070
:203DE000E88A1830FF1DBB4501D200F029F8E8823CE701287FF417AF00F058F802F057FB96
:203E0000012000F0AEFE05B0BDE8F08F0413002020546F2045786974205072657373205398
:203E2000454C202000000000205745454B2020202020444159204E3A2020202000000000BF
:203E4000BDF800100198A9825F4670470AFB146101F13002D2B270470A21B4FBF1F10AFBE3
:203E6000114101F13002D2B2704745F6A5218842704701F13002D2B22F21C0B201F0D8BB21
:203E8000C088B1FBFAF101F13002D2B27047C08801F13002D2B21F21C0B201F0C9BBC08885
:203EA000C0B201F0C5BB484601F013BB484601F045BB000000130020606880B229E238B52E
:203EC0000020009040F633055F4C6068009004E00098401E0090FFF79CFC02F000FC0428AF
:203EE00018D101F00AFB00F0B3F801F006FB00F041F801F002FB00F0B1F86278217800989B
:203F0000A84204D14FF4FA6000900098E3E70098401CDFE7052813D101F0EFFA00F098F82E
:203F200001F0EBFA00F026F801F0E7FA00F096F8627821780098B0F5FA6FC9D10095E4E73A
:203F40000128CAD101F0D9FA00F082F801F0D5FA00F010F801F0D1FA00F080F86278217820
:203F60000098FFF756FC009880B2606031BD000000080048C088C0EBC000C0B201F0C1BA08
:203F80001CB500F06AF99DF807002F4C9DF80610617000F5FA6060609DF8050020708DF8AC
:203FA00000001CE09DF800000C2804BF00208DF8000001F0A2FA00F04BF801F09EFAFFF795
:203FC000D9FF01F09AFA00F049F89DF80000411C8DF8001062786068C9B2FFF71AFC02F0B1
:203FE0007EFB0428DED0052816D19DF80000012804BF0D208DF8000001F07FFA00F028F8AD
:020000040800F2
:2040000001F07BFAFFF7B6FF01F077FA00F026F89DF80000411EDBE70128E0D101F06DFA37
:2040200000F016F801F069FAFFF7A4FF01F065FA00F014F89DF80000627820709DF80010A5
:204040006068FFF7E6FB13BD00000020902E0020C08800EB4000C0B201F053BAC088C00602
:20406000000E01F04EBA2DE9F04383B000F0F5F89DF80700DFF870489DF80550257000F541
:20408000FA606060022D9DF80600607004D1FFF713FF08B11D2502E06019C079451EE06954
:2040A000302640F23F1106FB1018401900F0BEF8871A182000FB01F937B901F01EFA1F26F4
:2040C000FFF718FD814409E001F017FA791EC08809EB800940F23F1006FB110660788DF8D3
:2040E00000004FF6FF7713E0E08A9DF800101830C91D8DF800109DF800108D4203D28DF872
:2041000000504846A682E082FFF7F9FC00F095F802F0E5FA022827D100F09CF800F08DF8E3
:204120009DF80000A8420AD100208DF8000001F0E4F9FFF7DFFCE08208F13000A082A08A0A
:204140001F2805D140F26F10A082E08A1830E082A08A3038FFF7D2FC00F06FF89DF8000019
:20416000401C8DF80000D3E7032823D100F072F800F063F89DF80000A18A012806D1681C9C
:204180008DF80000A4F81690A6F1300189B240F23F10814204D1E08A18384FF6EF71E0827B
:2041A00001F13000FFF7AAFC00F047F89DF80000401ED6E7042821D100F04CF800F03DF8EB
:2041C0009DF80000E18A012804D1A68248468DF8005098E79DF80000082807DA01208DF88B
:2041E000000001F08AF900F02FF88CE7A1F118009DF80010C91F8DF8001084E705280ED17E
:2042000000F028F800F019F89DF80000A8427FF46BAF01F072F9012100F016F869E701288C
:20422000A1D19DF800006070BDE8F783C01F0721B0FBF1F1C1EBC1027047E08AA18A2023F6
:204240001822C0B201F0E1BAC088A4F8148000EB40007047384601F03CB900208DF80000C3
:2042600001A901F02FBFF0B500230329B8BF401E6424B0FBF4F44FF4C875C4EB9004B0FB63
:20428000F5F52C19451E6427A4EB9506B5FBF7F7BE194FF4C877B5FBF7F5751B032904DAAA
:2042A000C1EB4111891820390AE099267143A1F2C911052691FBF6F189183A316B1C69188A
:2042C00020180722B0FBF2F2C2EBC202801A4218D21A0723B2FBF3F3C3EBC303D21ACB1C99
:2042E0009B1A06D5401B0523B0FBF3F0C0F1350008E005F5B670984231BF0120072093FB8F
:20430000F0F0401CDFF8E0359861481CDA611862F0BD410800EB91718908B0EB810101D001
:2043200000207047642190FBF1F1642202FB110109B1012070474FF4C87190FBF1F14FF461
:20434000C87202FB1100401E8041C00F70472DE9F04385B06946002001F04BFE9DF8000054
:20436000DFF888650A240A2190FBF1F104FB1100307171710A219DF8010090FBF1F104FBF3
:204380001100B070F1700A219DF8020090FBF1F1717004FB11003070002371790222E42096
:2043A000FEF785FF05463179022D08D10429A4BF0020307100F05CF800F1140703E000F013
:2043C00052F814FB050700F048F800F03FF800F036F800F02DF80646FEF735FF01A801F0DF
:2043E000E4FE00208DF807008DF8047014FB08908DF8050001AA14FB05608DF806004FF418
:2044000080711E208DF81000002003904FF000400290002001F075FE00F030F801214FF413
:20442000807001F002FF05B0BDE8F0830428004005463178002309227620FEF738BF8146D6
:204440007178002305228620FEF731BF8046B17800230922A620FEF72ABFF178002305220A
:20446000B620FEF724BF00230922D420FEF71FBF317900230322D420FEF719BF01214FF461
:20448000805001F04DBF80B5FFF7AAF94FF6FF7001F01FF8FFF7A7F9FFF7E7FC10D001F085
:2044A0002CF80FF26C4100F011F901F026F80FF27841FFF783F902F012F90028FBD001BD47
:2044C00001F01BF8FFF7CAFD01F017F800F010F801F013F800F005F8FFF718F8BDE801404E
:2044E00035E73A22C088C0069621000E01F0A0B83A22C088C006C421000E01F099B810B5C4
:20450000FFF784F900F0E7F800F00CF801F02DF9FFF7B9FF00F0E1F801F0C9FFBDE8104029
:20452000FFF771B90FF21842DF21A02002F022BD30B585B06A464FF48071002001F040FE22
:204540009DF80000E94C00F058F800F03EF800F06FF800F030F800F049F800F022F800F091
:204560005DF800F014F800F03AF800F006F800F04BF8FEF7EDFF05B030BD6178C08801F111
:204580003002C006D2B28621000E01F051B8A178C08801F13002C006D2B2A621000E01F05B
:2045A00047B8E178C08801F13002C006D2B2B621000E01F03DB82179C08801F13002C00656
:2045C000D2B2D421000E01F033B86179C08801F13002C006D2B2E421000E01F029B89DF86E
:2045E000020090FBF5F0607000F087BF9DF8010090FBF5F0E07000F080BF0A2190FBF1F027
:2046000060710A2500F079BF9DF802000A2190FBF1F105FB1100207000F06FBF9DF80100EE
:204620000A2190FBF1F105FB1100A07000F065BF9DF800000A2190FBF1F105FB11002071DE
:2046400000F05BBF10B5FFF7E1F800F044F8FFF769FF01F08AF8FFF7C3F8204600F039FF80
:20466000FFF7C1F8FFF701FC10D000F046FF0FF2A02100F02BF800F040FF0FF2AC21FFF7BB
:204680009DF802F02CF80028FBD015E000F035FFFFF7E4FC00F031FFFFF72AFF00F02DFF32
:2046A000FFF71FFFFFF744FF02F019F80028FBD102F015F80028FBD000F00FF801F0F7FEE7
:2046C000BDE81040FFF79FB80FF22C21C088C006000E00F0C2BF4FF6FF74204600F02EBFC2
:2046E00010B584B000F031F8012002F0F1FB012002F0E6FF002002F0E3FFFFF774F845F620
:20470000A524A0421ED0012002F012FE212003F010F80028FAD04FF4807002F0CCFF01209E
:2047200002F0CBFF01F0FDFB7F200190FF20029000200090684601F0B1FB2146002001F080
:20474000D5FD1FBD01F0EDFB1FBD01214FF0805002F0CBBF10B5FFF7F8FF012002F0B8FBD1
:20476000012002F0ADFF002002F0AAFF012002F0DFFD212002F0DDFF0028FAD04FF480709C
:2047800002F099FF5A4C7F20A060FF20E06000206060201D01F082FB00202060214601F068
:2047A000E5FB012002F089FFBDE8104001F0B9BB38B50024142505FB04F0C0F58C703022E3
:2047C00081B20EE0022C05FB04F018BF052CC0F58C7104D0082C08BF2E2201D0EBE73A22BE
:2047E00089B2252000F024FF641C0C2CEADB31BD0EB430B50446BDF80C0000F06AFE00258C
:2048000004A8425D14206843C0F58C7081B2204600F00EFF6D1C0C2DF2DB30BC5DF810FB4C
:20482000FEB55678147892783C234FF461655E4315FB0464A2182F4C2468141BB4FBF5F656
:204840000A22B6FBF2F707F130028DF8002005FB16450A2202FB176730378DF80170B5FBB4
:20486000F3F53A278DF802700A26B5FBF6F602FB165530358DF8045006F130073A258DF874
:2048800005508DF803703C25B4FBF5F503FB15430A24B3FBF4F402FB143330338DF8073054
:2048A00004F130052E238DF808308DF806506423B1FBF3F303F130048DF80940642404FB4F
:2048C0001313B3FBF2F330338DF80A300A23B1FBF3F302FB131130318DF80B100C2269463F
:2048E00001F098FDFEBD000000000020982E0020502E00200813002053656C6563743A20DE
:2049000050726573732053454C2020200000000054696D65206E6F7420636F6E666967751B
:204920007265642000000000202020202050726573732053454C20202020202000000000AB
:20494000535446494C45532F414C41524D2E424D500000000901002807D5DFF85C2400F03F
:204960000F00104400F8041C7047DFF850241154704710B500214FF0006001F07AFA00F0C4
:2049800022F8DFF83C4408E00020206000F0E9F801F048FE012000F0E4F820680028F3D1B5
:2049A000A06830B10020A06000F0DBF801F010FEF0E760680028F0D00020606000F0D1F80C
:2049C00001F022FEE6E710B501214FF4FC0002F07AFEDFF8F00302F056FE00F012F900F06E
:2049E0005BFD4FF6FF74204600F0A8FD00F02CF800F09BF802F0ECFE112002F09AFE28B99D
:204A0000DFF8C403016841F00041016000F056F901F0D6FE204600F091FD002000F0A1F82B
:204A2000FEF781FC012000F09CF8012000F028F91F2000F056FD204600F04BFD01F02AFDF5
:204A4000BDE8104001F00FBFE0B54FF4407001F0DFF9022000F04AF800F061F8362000F06E
:204A600045F800F05CF81C208DF800000F208DF8010000F052F81E208DF80000012000F031
:204A800049F81D2000F02CF800F047F80B2000F027F800F042F829208DF8000001208DF87D
:204AA00001008DF802008DF80300684601F0B5F900208DF808001120019000F01FF81420EF
:204AC00001F091F91420019000208DF8080000F015F8172000F01BF8282000F018F807BDA6
:204AE0008DF8000000208DF8010070478DF8000000208DF802008DF80100704708208DF8BE
:204B0000090001208DF80A0001A801F0E9B88DF8000003208DF8010000208DF802000120AB
:204B20008DF80300684601F078B910B5A74800686421B0FBF1F0401EB0F1807F10D2A44C20
:204B400060600F214FF0FF30FFF704FF0020A060FF21072020604FF0FF30BDE81040F9E6D5
:204B6000FEE71CB50446684601F028F91CB905200090002011E0052001F035F9072001F07E
:204B800032F90D2001F02FF90520009000208DF8040008208DF8050001208DF8060000F0F8
:204BA00008F8072000F004F80D2000F001F813BD0090684601F094B801B486480099016004
:204BC00083490A6842F001020A600268002AFCD108684008400008600020886001B07047C7
:204BE0007C48016811B10168491E0160704701B402E00098401E009000980028F9D101B086
:204C00007047E0B50121042003F0C3F90121052003F0BFF90121062003F0BBF9002103202E
:204C200003F0B7F90021022003F0B3F90021012003F0AFF9002003F079F9012003F076F90A
:204C4000022003F073F9032003F070F90121012002F04BFD684603F076FC4FF47A70ADF8F2
:204C6000000069460020ADF802004FF4E15001900020ADF808004FF0804003F01DFC07BD1D
:204C800080B50128544905D10860012200F00EF8012105E000200860002200F007F8002101
:204CA000BDE804404FF0804003F063BC01214FF0804003F0C8BD48480068704780B501F08C
:204CC000BEFE002867D001F0BAFE002863D001F0B6FE00285FD01F2000F003FC4FF6FF70D7
:204CE00000F0F7FB00F009FC0FF2F001002000F0B4FC00F002FC0FF2FC01C08800F04CF8C3
:204D000000F0FBFB0FF20411C0884006000E00F0A4FC00F0F2FB0FF20C11C08800EB4000FD
:204D200000F03AF800F0E9FB0FF21011C0888006000E00F092FC00F0E0FB0FF21811C088C4
:204D400000EB800000F028F800F0D7FB0622C0880FF21811504300F01FF800F0CEFB0FF228
:204D60002411C088C0EBC00000F016F800F0C5FB0FF22811C088C006000E00F06EFC00F0FD
:204D8000BCFB0FF23011C08800EBC00000F004F802F08CFAFEE701BDC0B200F05EBC084953
:204DA00001200860704706490120486070470449012088607047000018ED00E000E400E02E
:204DC0006C2E00202000001004ED00E05813002010E000E0C42E0020C82E00202020202015
:204DE00020205761726E696E6720202020202020000000004E6F206C6F61646564204269AC
:204E0000746D6170202020200000000066696C65732E2044656D6F2063616E2774206265A6
:204E20000000000065786563757465642E202020202020202020202000000000506C65610B
:204E40007365206265207375726520746861742000000000616C6C2066696C657320617264
:204E6000652020202020202000000000636F72726563746C792070726F6772616D6D6564C8
:204E800000000000696E20746865204D6963726F5344204361726420000000007468656EC0
:204EA00020726573746172742044656D6F2020200000000020202020202020202020202048
:204EC00020202020202020200000000000906946204601F09FBF2DE9F84300F025FE00F08A
:204EE0003DFEDFF8F049A06849F22031884241F2180540F23F1640F2023740F2022841F238
:204F0000300940F0C98000F00DFE4FF40041E52000F0CFFD0121002000F0CBFD00F0A1FA1A
:204F200000F041FB00F01EFC00F019FC00F014FC00F00FFC00210A2000F0BBFD00210C20FB
:204F400000F0B7FD00210D2000F0B3FD00210F2000F0AFFD00F081FA00F07BFA00F075FAA4
:204F600000F06FFA142000F080FE41F2B07100F075FA40F2371100F06DFA00F0D3FD40F2C0
:204F8000391100F063FA00F0CDFD4FF4E85100F059FA1321292000F08CFD00F0C3FD00F06B
:204FA0004CFA0021212000F084FD0621302000F080FD40F20111312000F07BFD0321322081
:204FC00000F077FD4FF48371352000F072FD40F60231362000F06DFD3946372000F069FD3D
:204FE00040F20771382000F064FD0721392000F060FD4FF4C0613C2000F05BFD40F20B212A
:205000003D2000F056FD00F0A1FB00F09CFB00F097FB00F092FB4FF41C51602000F049FD78
:205020000121612000F045FD00216A2000F041FD0021802000F03DFD0021812000F039FDEF
:205040000021822000F035FD0021832000F031FD0021842000F02DFD0021852000F029FDCE
:205060001021902000F025FD0021922000F021FD0321932000F01DFD00F0DAF900219720E0
:2050800000F017FD0021982000F013FD294600F06AFB40F27311D2E0A06845F208418842B5
:2050A00040F0CF8043F20801E32000F002FD1221E72000F0FEFC41F23121EF2000F0F9FCA4
:2050C00000F0CFF900F06FFA00F04CFB00F047FB00F042FB00F03DFB00210A2000F0E9FCE1
:2050E00000210C2000F0E5FC00210D2000F0E1FC00210F2000F0DDFC00F0AFF900F0A9F934
:2051000000F0A3F900F09DF9142000F0AEFD072100F0A0F900F006FD41F2B02100F09EF97F
:2051200000F000FD40F2BD1100F090F900F0FAFC4FF4A05100F086F90E21292000F0B9FC63
:2051400000F0F0FC00F079F93146212000F0B1FC0721302000F0ADFC3946312000F0A9FC46
:2051600040F205173946322000F0A3FC40F206284146352000F09DFC40F608094946362090
:2051800000F097FC4146372000F093FC40F20451382000F08EFC0721392000F08AFC394660
:2051A0003C2000F086FC49463D2000F082FC00F0CDFA00F0C8FA00F0C3FA00F0BEFA4FF4C6
:2051C0002741602000F075FC0121612000F071FC00216A2000F06DFC0021802000F069FC6C
:2051E0000021812000F065FC0021822000F061FC0021832000F05DFC0021842000F059FC75
:205200000021852000F055FC1021902000F051FC0021922000F04DFC0321932000F049FC51
:2052200000F006F90021972000F043FC0021982000F03FFC294600F096FA4FF48971072021
:20524000EFE0A068472840F0EE800021EA2000F030FC2021EB2000F02CFC0C21EC2000F096
:2052600028FCC421ED2000F024FC4021E82000F020FC3821E92000F01CFC0121F12000F006
:2052800018FC1021F22000F014FCA321272000F010FC0121402000F00CFC0021412000F0C4
:2052A00008FC0021422000F004FC1021432000F000FC0E21442000F0FCFB2421452000F0E3
:2052C000F8FB0421462000F0F4FB5021472000F0F0FB0221482000F0ECFB1321492000F0CF
:2052E000E8FB19214A2000F0E4FB19214B2000F0E0FB16214C2000F0DCFB1B2100F027FA31
:20530000312100F021FA2F2100F01BFA3F2100F015FA3F21542000F0CCFB3E21552000F02D
:20532000C8FB2F21562000F0C4FB7B21572000F0C0FB0921582000F0BCFB0621592000F09E
:20534000B8FB06215A2000F0B4FB0C215B2000F0B0FB1D215C2000F0ACFBCC215D2000F06C
:20536000A8FB1B211B2000F0A4FB01211A2000F0A0FB2F21242000F09CFB5721252000F0D5
:2053800098FB8621232000F094FB3621182000F090FB0121192000F08CFB06211C2000F0E2
:2053A00088FB06211D2000F084FB90211F2000F080FB0121272000F07CFB0A2000F055FC01
:2053C0000521172000F075FB0921362000F071FB3821282000F06DFB3C2000F046FC3C2150
:2053E000282000F066FB002100F03DF8002100F0DCF8002100F0B7F9012100F0B1F93F210C
:20540000052000F056FB00F0D3F80021072000F050FB002100F0A1F9EF2100F09BF9E021A8
:20542000162000F046FB04F10C006060BDE8F1834FF48871952000F03CBB0021202000F002
:2054400038BB0021132000F034BB0021122000F030BB0021112000F02CBB0021102000F08E
:2054600028BB4FF48071012000F023BBDFF864140028886806D0472801D1A02105E041F2CF
:20548000080106E0472802D1E021162002E041F21801032000F00DBB10B582B000200090F4
:2054A000FFF719FD002000F084FA009045F208400099DFF8204481421FBF49F220300099AA
:2054C00081424720A060FFF706FD04F10C00606013BD01B4BDF80000DFF8F813088001B093
:2054E000704701B4BDF80000DFF8E813488001B07047DFF8E01348607047DFF8D803406806
:2055000070472DE9F041DFF8CC5380466868808840F23F164742002406E02022B1B24046B4
:2055200000F086F8BE19641C696889884FF4A07090FBF1F0A042F0D2BDE8F08138B5044614
:2055400000F0ECFA07BF0021002040F23F11002000F00FF800F09BFA4FF49635204600F0EC
:20556000CBFA6D1EFAD100F04BF90028FBD100F0B6BA38B500F0DBF80CD100F019F8214693
:20558000072000F096FA290A00F00FF805F0FF01032004E02146FFF751FF29462120BDE83C
:2055A000344000F086BA4FF4E061022000F081BA0021062000F07DBA2DE9F8438846914612
:2055C0000446FFF7D6FF0025DFF8087307E000F052FA641C4146E0B2FFF7CBFF6D1C78685A
:2055E000C088854222D200F052FA002603E0388800F082FA761C786881888E42E7D20C2304
:2056000091FBF3F38020DB0039F8152000FA03F333411A4201D10D2906DB012000FA06F37A
:205620001A42E4D10D29E2DB7888E1E7BDE8F18310B5DFF8A0329C685B68203A472C04BFC0
:2056400040F23F14611A1C68DB88D2B25A4304EB4202BDE8104089B2AEE770B504460D4688
:2056600040F23F160AE015F8012BB1B22046FFF7DFFFDFF8600240688088361A28780028E2
:20568000F1D170BDF8B500F052F81E46174633D140F23F10401B0002010CFFF786FF40F2D7
:2056A0003F10401B00F0FF0100F05DF8701B00F59F700002010C00F053F8701B00F59F70A3
:2056C00000F0FF01052000F0F4F9FFF771FFC4F1EF0000F0FF01072000F0EBF9002100F0D2
:2056E0003CF8381BEE3000F0FF0100F033F829462046FFF73EFF15E0944223BFE01B411CED
:2057000089B2002100F023F8214600F01DF8B54223BFA81B411C89B2002100F012F82946F8
:2057200000F00CF829462046BDE8F44021E704466848806847280D46704731465320B8E1E1
:2057400000215220B5E1EF215120B2E100215020AFE100210920ACE141460820A9E10021BA
:205760000420A6E149460320A3E180B54FF4A073F02240F23F11EF20FFF784FF00F0CEF9EA
:2057800005D0BDE8044041F21801032091E101BD2DE9F0470446884640F23F104D4FA0EB9F
:2057A0000806B8680025472891469A4608BFB1B22046FFF7DEFEBAF1000F15D100F067F91E
:2057C00003E0388800F098F96D1C4D45F9D300F017F80028FBD1BDE8F04782E1BDE8F08770
:2057E000E0B2FFF7C6FE6D1C4D45F7D2388800F056F9B868641C47280CBFB1B24146EFE7E0
:205800008021DFF8240403F090B9F8B516461F4604460D4600233A46FFF7BAFF30190023E3
:205820003A462946C0B2FFF7B3FF0123324629462046FFF7ADFF324601B0E81B411C20465D
:20584000BDE8F040012389B2A2E72DE9F041214C82B005462088ADF80000984600F036F811
:205860000F461646002300F086F808EB0500002332463946C0B2FFF78BFF012342463946B7
:2058800000F079F8B81B411C0123424689B200F072F86088ADF80000B61E00F017F8A8F13D
:2058A00001087F1E05E06D1C0023B2B2B9B200F062F84046A0F1010880B20028F3D100F06A
:2058C00002F8BDE8F3812088ADF80000BDF8000020807047A01200202DE9FE4F0024151AD4
:2058E000012DACBFA2EB000CA0EB020C5D1A012DACBFA3EB010EA1EB030E4FF0FF39824258
:2059000005B20EB227BF4FF0010BD846CB46C8468B420FFA8EF00FFA8CF128BF4FF0010998
:205920008142CA4608DB009101EBD1720290A346A2465710019118E0009000EBD07202914D
:20594000A046A146571001900FE031B228B200F080F90298C71900983FB2874202DB3F1A6B
:205960005D444E4445445644641C019824B2A042EBDABDE8F78FE8B20AE738B5044600222C
:205980000121DFF8AC02DFF8A05200F0E5F82146BDE038B504467020FFF7EFFFDFF888526A
:2059A000002100F0A2F800F0A3F80028FBD121468FE038B59C4C21884FF6C77211402180F9
:2059C000218841F00801218098498968472919D1FFF7DFFF7320FFF7D0FF00F054F828B1D6
:2059E000022100F051F80028FAD0F6E700F047F8012100F049F80028FAD02046BDE832408B
:205A000003F06FB8FFF7C5FF7320FFF7B6FF052500F035F800F037F80028FBD1012100F008
:205A200033F80028FAD0204603F05BF86D1EEFD100F025F800F027F80028FBD1012100F030
:205A400023F80028FAD000F01AF800F01CF80028FBD1012100F018F80028FAD0204603F0D2
:205A600043F8054600F007F820884FF6C77108402080284632BD012201216D486CE0FF21E1
:205A8000204603F029B88021204603F04EB880B52220FFF77EFFBDE8024072206DE710B550
:205AA0000446FFF7F4FF204600F026F8BDE8104017E038B50C46FFF76CFF7220FFF75DFFCF
:205AC000594D210A00F011F800F012F80028FBD1E1B200F00AF800F00BF80028FBD1BDE8FD
:205AE000384001220121524836E0284602F0F4BF8021284603F019B838B504464A4D010A7A
:205B0000FFF7F3FFFFF7F4FF0028FBD1E1B2FFF7ECFFFFF7EDFF0028FBD131BD4348806815
:205B2000472870470520A0E01CB501214FF4001001F0C9FD0120009003208DF8050001201E
:205B400000F07CF869463A4CFFF7C2F901220121204600F001F813BD01F09EB970B588B0F2
:205B600001214FF4880001F0AEFD012144F2010001F0B2FD01214FF4804001F0B6FD0320B7
:205B80008DF805004FF40075022000F057F800956946284C284EFFF79BF94FF4804000F0B7
:205BA00053F84FF4004000F04FF805220921204601F077F905220E21304601F072F9052279
:205BC0000F21304601F06DF9174C204602F0ACFE0020ADF80800ADF812504FF48270ADF8B5
:205BE0000A0002A94FF4E060ADF80C000220ADF80E000120ADF810000820ADF81400002010
:205C0000ADF816000720ADF81800204602F0CCFE4FF48051204602F05BFF0121204602F083
:205C200043FF08B070BD000000380040A01200200010004800140048000400488DF804006A
:205C40000020ADF80600704700906946304601F0E1B8F02838BFB1F5A07F05D20023012292
:205C600089B2C0B2FFF794BD704701B481B00020009048F2D0410198484301E00098401E9D
:205C8000009000980028F9D102B0704730B56FF003038A001940064B02F00C025C580F251B
:205CA0009540AC435C5090405C582043585030BD0800014051484FF0FC5101600021416067
:205CC0008160C16001616FF0FC5141610C210162002141628162C1620163032141637047D5
:205CE000F0B50268012102F01F0301FA03F38579DC435309002D414A58D002EB43131D684D
:205D00002C401C6003683E4D5C0905EB441403F01F03256801FA03F325EA03032360046861
:205D20000379650903EB4513D31804F01F041D6801FA04F42C431C60324B0468650903EB89
:205D4000451504F01F042E6801FA04F426EA04042C6005682C4C6E0904EB461605F01F05E5
:205D6000376801FA05F527EA050535604779056805F01F066D09102F01FA06F610D103EB1D
:205D800045121368334313600068420904EB421200F01F00136801FA00F018431060F0BD65
:205DA00007EB451013181868304305E0007900EB43101318186820401860F0BD0021016030
:205DC0000171102141710021817170470CE000BF41090E4A02EB411100F01F000968C14097
:205DE00001F00100704700BF012100F01F0291404009064A02EB4010016070470004014004
:205E000004040140080401400C040140140401401B4908431B490860704770B50378C47834
:205E20001A460121E4B1174B1B68447803F4E063C3F5E0631B0AC3F10405AC4085780F2675
:205E4000DE4006EA050323430F4C1B01A354007800F01F0291400D4A400942F8201070BDC7
:205E600003F01F0001FA00F00949520941F8220070BD084A11400843074908607047000093
:205E80000000FA050CED00E000E400E000E100E080E100E080FFFF1F08ED00E070B5044683
:205EA000DFF80455CA20E86100265320E86100F01BF8A8B128686FF040010840286001261A
:205EC0002868216808432860A068A860A868616840EA0140A8606FF08001686808406860BA
:205EE000FF20E861304670BD81B000200090DFF8C0040168490611D44FF0FF310160016845
:205F0000009A521C0092009AB2F5005F01D04906F5D50068800900F0010000E0012001B0C9
:205F2000704781B000200090DFF87C140868800648BF012018D4CA20C8616FF0A0025320D1
:205F4000C8614868104048604868009A521C0092009AB2F5004F01D08006F5D5FF224868A4
:205F6000CA61400900F0010001B07047F8B50024DFF830540028A8680E4626D1400658BF48
:205F8000F470307800F033FA0746707800F02FFA00F0FEF83843F17840EA0146CA2068629B
:205FA00053206862FFF7A0FFC8B1DFF80804304028606FF08001E8680840E860A868800665
:205FC0000CD4FFF7AEFF50B108E0400652BFF470307800F017FA00F0E0F8DCE70124FF2022
:205FE00068622046F2BD0021C170017041708170704710B50C46DFF8AC13DFF8B8230968D6
:020000040800F2
:2060000011400A0C02F03F032370A1700B0A02F040016370E17038B9207800F0F3F900F080
:20602000FEF800F0FFF8A07010BDDFF88C13486A0968704770B50D460024697878BBC806D8
:2060400003D501F0EF000A306870E87800F0CFF90646687800F0CBF9000240EA0646A878E6
:2060600000F0C5F930432978DFF84C5340EA4136CA20286253202862FFF736FFF0B1DFF833
:206080003C03304028606FF08001A8680840A8606868800611D4FFF744FF78B10DE00846B1
:2060A00000F0B0F9A87800F0ADF96978E878090241EA0040A9780843D5E70124FF202862E4
:2060C000204670BD10B50C46DFF8EC12DFF8EC22096811400A0CE270A1700A0A02F01F02FA
:2060E000490B627001F00701217048B9E07800F089F9E070607800F085F900F093F8A07004
:2061000010BD2DE9F041DFF8A052002828680C46164625D140065CBF0020F070307800F0CD
:2061200066F90746707800F062F900F031F88046307B00F05CF9F27848EA070141EA02419F
:2061400041EA0060B168084371680843CA21E9615321E961B4F5807F0CBF6861A86113E001
:20616000400603D5307800F04DF901E00020F070307B00F047F900F010F8F17840EA01401B
:20618000317B40EA0160DDE7FF20E861BDE8F081000240EA0747B07829E17178307809023E
:2061A00041EA0040B178084370470021C170017041708170816001210173002141607047F4
:2061C00010B51446DFF8F821B1F5807F0CBF116851680A0C02F03F0302F040022370E270AB
:2061E0000B0A0A0E03F07F0302F03F026370227301F07F0301F0804201F08031A370A26085
:20620000616058B9207800F0FDF800F008F800F009F8A070207B00F0F5F8207310BD2070D6
:206220006078EFE06070A078ECE018B50A460021DFF874310091CA24DC615324DC611AB10E
:2062400019680843186011E01A6882431A605A68009C641C0094009CB4F5005F02D012EA64
:20626000102FF4D05A6812EA102F00D00121FF20D861084612BD10B5DFF83031CA241C6050
:20628000114353241C60B0F5807F0CBF19625962FF20186010BD4B4A002911680CBF21EAA1
:2062A000400041EA400010607047464A0029116814BF084321EA00001060704741490A688E
:2062C00022F4C05203E03F490A6822F4E0620A600A681043086070473A490028086814BF25
:2062E00020F4004040F400400860704781B000220092354A0092009A02EB80000090009892
:20630000016001B0704781B0002100912E490091009901EB800000900098006801B07047CC
:2063200010B5214ACA23D3616FF004045323D36100F0040320400029116804D00843106073
:20634000906B184304E021EA00001060906B98439063FF20D06110BD154A12681040002158
:206360001A4A104218BF01210846704710490A68C0F3100033E030B50B4A936B146852685A
:2063800002EA10120440850CE84003EAD030002100F00400204302D0100418BF0121084660
:2063A00030BD00000028004008280040242800400C2800407F7F7F00042800403FFFFF00F2
:2063C0001C28004040280040502800407FFF0100004901E00C2800400A680003000C40F00B
:2063E000800002F0800262EA000008607047002101E0491C0A38C0B20A28FADA40EA0110E2
:20640000C0B2704701090A2200F00F0012FB0100C0B2704762B38B0708D0521E11F8013BB3
:2064200000F8013B00F024808B07F6D1830740F0208000BF103A07D330B4B1E83810103AEF
:20644000A0E83810F9D230BC530724BFB1E80810A0E8081044BF51F8043B40F8043BD2074C
:2064600024BF31F8022B20F8022B44BF0B7803707047083A07D3B1E80810083A40F8043B68
:2064800040F804CBF7D25307E4E770477047704770477047DFF80407427800F1C40100EB37
:2064A00082020162116100F12401816070471F20F8B5FFF716F84FF6FF742046FFF709F8D0
:2064C0002046FFF73BF8DFF8D456286A00F0B3FA2046FFF706F84021DFF8C40600F0CFFCE6
:2064E0000026182700284DD000214FF48070FFF79CFEDFF8B006FEF7FCFFFFF736F9204606
:20650000FFF71CF800F090FA4FF47840FEF7E1FFFEF7F3FF0FF2F861C0884006000EFFF754
:206520009CF8FEF7EAFF0FF20071C08800EB400000F0B1F82046FEF7CCFFFEF7DEFF0FF272
:206540000071C08800EB800000F0A5F8FEF7D5FF0622C0880FF20071504300F09CF800F0D8
:20656000BEF80428FBD1BFF34F8FDFF83C06DFF83C26016801F4E06111430160BFF34F8FA7
:2065800000BFFDE700F077F807E040683101761C4158F8B2FFF761F81837286A017A8E42E8
:2065A000F3D34FF4FC60FEF79CFF2046FEF791FF296A2878496801EB0011A960401C096844
:2065C000182210FB02F0BDE8F440C0B2FFF745B810B5DFF8C845A068E060C16879B10021E1
:2065E0002170C06820624068A060FFF760FF6078216A401C6070C0B204EB80000161E06849
:206600004068BDE81040004770B500F02FF800F032F800F033F82078010004BF206A007AC5
:20662000401E0EE070B500F021F800F024F800F025F8216A097A2078491E8842ACBF002065
:20664000401C20704FF4FC60FEF74BFF3046FEF740FF216A2078496801EB0011A16000F004
:2066600016F8617820782144087170BD4FF6FF763046FEF736BF1F20FEF72BBFDFF81C4520
:20668000216A2078496801EB0011A1601825401C096810FB05F0C0B2FEF7DFBF10B5DFF87D
:2066A000FC44A06880688047607808B901206070607804EB80012218C9682162401E496814
:2066C000A1600021117160702170C0B200281CBFBDE81040FFF7EBBEBDE81040C3E080B5DF
:2066E000022001F0ADFC30B1022001F0A9FC0128FAD0022002BD032001F0A2FC30B10320BB
:2067000001F09EFC0128FAD0032002BD042001F097FC30B1042001F093FC0128FAD00420D5
:2067200002BD052001F08CFC30B1052001F088FC0128FAD0052002BD062001F081FC30B135
:20674000062001F07DFC0128FAD0012002BD012001F076FC30B9012001F072FC0128FAD0F6
:20676000062002BD002002BD70472DE9F047DFF8408408F2145100204FF4917902F062FF97
:20678000002462254F4603264FF0040A40234022B9B2E8B2FEF776FF08EB8400B9B2426C7F
:2067A000E8B200F0E7FB413F641C0A2C06D0BAF1010AEBD14135761E4F46E5D1BDE8F0877E
:2067C00010B584B00120FEF7CCF917208DF800004FF6FF740020ADF802008DF80100684676
:2067E000FFF71BFB06210220FFF750FA00208DF808000620019008208DF8090001208DF844
:206800000A0001A8FFF76CFA0620FFF7DFFA17208DF8000001208DF8020000208DF801006A
:2068200001208DF803006846FFF7F7FA2046FEF785FE2046FEF755FEFFF71DFF0FF2304209
:2068400040F20911CD2000F095FB0520FEF7B4F90FF2A83240F23F11EF2000F08BFB642052
:20686000FEF7AAF91FBDF0B58DB068460FF214413022FFF7DFFD0020FEF773F90027FFF7FC
:206880002EFF0028FBD1FFF705FEC44C4FF6FF7527702846FEF752FE00F0C6F800F0C7F86E
:2068A000FEF72BFE00F0C6F82846FEF71AFEFFF7E2FEFFF75AFFFEF758FFBDF80000BDF8B6
:2068C0000210412300F0ACF80DE020704868217800EB0110A060FEF710FE00F0ABF861787D
:2068E000207821440871FFF7FAFE6946042801EB870623D100F09BF800F086F800F090F883
:20690000042F04D208370A2F02D3092700E03F1FFFF7B1FE00F07DF800F086F800F087F8CC
